{
  "contractName": "HelloWorld",
  "abi": [
    {
      "inputs": [
        {
          "internalType": "uint256",
          "name": "",
          "type": "uint256"
        }
      ],
      "name": "payload",
      "outputs": [
        {
          "internalType": "string",
          "name": "",
          "type": "string"
        }
      ],
      "stateMutability": "view",
      "type": "function",
      "constant": true
    },
    {
      "inputs": [
        {
          "internalType": "string",
          "name": "content",
          "type": "string"
        }
      ],
      "name": "setPayload",
      "outputs": [],
      "stateMutability": "nonpayable",
      "type": "function"
    },
    {
      "inputs": [
        {
          "internalType": "string",
          "name": "_stringTest",
          "type": "string"
        }
      ],
      "name": "sayHello",
      "outputs": [
        {
          "internalType": "string",
          "name": "",
          "type": "string"
        }
      ],
      "stateMutability": "view",
      "type": "function",
      "constant": true
    }
  ],
  "bytecode": "0x608060405234801561001057600080fd5b50610a16806100206000396000f3fe608060405234801561001057600080fd5b50600436106100415760003560e01c8063c3a9b1c514610046578063e1ad769914610076578063e941d69414610092575b600080fd5b610060600480360381019061005b9190610418565b6100c2565b60405161006d91906104e0565b60405180910390f35b610090600480360381019061008b9190610418565b6101da565b005b6100ac60048036038101906100a79190610538565b610212565b6040516100b991906104e0565b60405180910390f35b606060008080549050905060005b8181121561019a57836040516020016100e991906105a1565b6040516020818303038152906040528051906020012060008281548110610113576101126105b8565b5b9060005260206000200160405160200161012d91906106df565b6040516020818303038152906040528051906020012003610187576040518060400160405280600b81526020017f56616c696420456e747279000000000000000000000000000000000000000000815250925050506101d5565b80806101929061072f565b9150506100d0565b506040518060400160405280600d81526020017f496e76616c696420456e747279000000000000000000000000000000000000008152509150505b919050565b60008190806001815401808255809150506001900390600052602060002001600090919091909150908161020e919061090e565b5050565b6000818154811061022257600080fd5b90600052602060002001600091509050805461023d90610616565b80601f016020809104026020016040519081016040528092919081815260200182805461026990610616565b80156102b65780601f1061028b576101008083540402835291602001916102b6565b820191906000526020600020905b81548152906001019060200180831161029957829003601f168201915b505050505081565b6000604051905090565b600080fd5b600080fd5b600080fd5b600080fd5b6000601f19601f8301169050919050565b7f4e487b7100000000000000000000000000000000000000000000000000000000600052604160045260246000fd5b610325826102dc565b810181811067ffffffffffffffff82111715610344576103436102ed565b5b80604052505050565b60006103576102be565b9050610363828261031c565b919050565b600067ffffffffffffffff821115610383576103826102ed565b5b61038c826102dc565b9050602081019050919050565b82818337600083830152505050565b60006103bb6103b684610368565b61034d565b9050828152602081018484840111156103d7576103d66102d7565b5b6103e2848285610399565b509392505050565b600082601f8301126103ff576103fe6102d2565b5b813561040f8482602086016103a8565b91505092915050565b60006020828403121561042e5761042d6102c8565b5b600082013567ffffffffffffffff81111561044c5761044b6102cd565b5b610458848285016103ea565b91505092915050565b600081519050919050565b600082825260208201905092915050565b60005b8381101561049b578082015181840152602081019050610480565b60008484015250505050565b60006104b282610461565b6104bc818561046c565b93506104cc81856020860161047d565b6104d5816102dc565b840191505092915050565b600060208201905081810360008301526104fa81846104a7565b905092915050565b6000819050919050565b61051581610502565b811461052057600080fd5b50565b6000813590506105328161050c565b92915050565b60006020828403121561054e5761054d6102c8565b5b600061055c84828501610523565b91505092915050565b600081905092915050565b600061057b82610461565b6105858185610565565b935061059581856020860161047d565b80840191505092915050565b60006105ad8284610570565b915081905092915050565b7f4e487b7100000000000000000000000000000000000000000000000000000000600052603260045260246000fd5b7f4e487b7100000000000000000000000000000000000000000000000000000000600052602260045260246000fd5b6000600282049050600182168061062e57607f821691505b602082108103610641576106406105e7565b5b50919050565b60008190508160005260206000209050919050565b6000815461066981610616565b6106738186610565565b9450600182166000811461068e57600181146106a3576106d6565b60ff19831686528115158202860193506106d6565b6106ac85610647565b60005b838110156106ce578154818901526001820191506020810190506106af565b838801955050505b50505092915050565b60006106eb828461065c565b915081905092915050565b7f4e487b7100000000000000000000000000000000000000000000000000000000600052601160045260246000fd5b6000819050919050565b600061073a82610725565b91507f7fffffffffffffffffffffffffffffffffffffffffffffffffffffffffffffff820361076c5761076b6106f6565b5b600182019050919050565b60006020601f8301049050919050565b600082821b905092915050565b6000600883026107c47fffffffffffffffffffffffffffffffffffffffffffffffffffffffffffffffff82610787565b6107ce8683610787565b95508019841693508086168417925050509392505050565b6000819050919050565b600061080b61080661080184610502565b6107e6565b610502565b9050919050565b6000819050919050565b610825836107f0565b61083961083182610812565b848454610794565b825550505050565b600090565b61084e610841565b61085981848461081c565b505050565b5b8181101561087d57610872600082610846565b60018101905061085f565b5050565b601f8211156108c25761089381610647565b61089c84610777565b810160208510156108ab578190505b6108bf6108b785610777565b83018261085e565b50505b505050565b600082821c905092915050565b60006108e5600019846008026108c7565b1980831691505092915050565b60006108fe83836108d4565b9150826002028217905092915050565b61091782610461565b67ffffffffffffffff8111156109305761092f6102ed565b5b61093a8254610616565b610945828285610881565b600060209050601f8311600181146109785760008415610966578287015190505b61097085826108f2565b8655506109d8565b601f19841661098686610647565b60005b828110156109ae57848901518255600182019150602085019450602081019050610989565b868310156109cb57848901516109c7601f8916826108d4565b8355505b6001600288020188555050505b50505050505056fea2646970667358221220773a5d840ea5a08daaeaf074f01e669a01e234ffa7452c0cb4549c5a346d3da464736f6c63430008110033",
  "immutableReferences": {},
  "source": "// SPDX-License-Identifier: GPL-3.0\r\npragma solidity >=0.7.0 <0.9.0;\r\n\r\ncontract HelloWorld {\r\n   \r\n    string [] public payload;\r\n    //mapping (string => uint) public Payload;\r\n    function setPayload(string memory content) public {\r\n      //  Payload[content] = 1;\r\n        payload.push(content);\r\n    }\r\n    function sayHello(string memory _stringTest) view public returns (string memory) {\r\n        //return (Payload[_stringTest] ==  1)? \"Valid Entry\" : \"Invalid\";\r\n        uint arrayLength = payload.length;\r\n        for(int i = 0;i < int(arrayLength);i++){\r\n            if (keccak256(abi.encodePacked(payload[uint(i)])) == keccak256(abi.encodePacked(_stringTest))){\r\n                return \"Valid Entry\";\r\n            }\r\n        }\r\n        return \"Invalid Entry\";\r\n    }\r\n}\r\n",
  "sourcePath": "C:\\Users\\tarun\\OneDrive\\Documents\\Desktop\\ganache-blockchain\\contracts\\contract.sol",
  "compiler": {
    "name": "solc",
    "version": "0.8.17+commit.8df45f5f.Emscripten.clang"
  },
  "schemaVersion": "3.4.13",
  "updatedAt": "2023-04-25T15:35:51.831Z",
  "networkType": "ethereum",
  "devdoc": {
    "kind": "dev",
    "methods": {},
    "version": 1
  },
  "userdoc": {
    "kind": "user",
    "methods": {},
    "version": 1
  }
}